:020000040000fa
:02000004000eec
:10000000f8ff1100092f0e0015330e0015330e00f6
:100010000000000015330e0015330e000000000034
:1000200000000000000000000000000015330e007a
:1000300015330e000000000015330e0015330e00be
:1000400015330e0015330e0015330e0015330e0058
:1000500015330e000000000000000000000000004a
:100060000000000000000000000000000000000090
:10007000000000000000000015330e0015330e00d4
:1000800015330e0015330e000000000000000000c4
:1000900015330e0015330e0015330e0015330e0008
:1000a00015330e0015330e0015330e0015330e00f8
:1000b00015330e0015330e0015330e0015330e00e8
:1000c00015330e0015330e0015330e0015330e00d8
:1000d0000000000000000000000000000000000020
:1000e00015330e0015330e0015330e0015330e00b8
:1000f00015330e0015330e0015330e0015330e00a8
:1001000015330e0015330e0015330e0015330e0097
:1001100015330e00000000000000000015330e0033
:1001200015330e0015330e0015330e0015330e0077
:1001300015330e000000000015330e0015330e00bd
:1001400000000000000000000000000000000000af
:10015000000000000000000015330e0015330e00f3
:1001600015330e0015330e000000000000000000e3
:10017000000000000000000015330e0015330e00d3
:1001800000000000000000000000000015330e0019
:1001900015330e0015330e000000000015330e005d
:1001a000000000000000000015330e0015330e00a3
:1001b000000000000000000000000000000000003f
:1001c000000000000000000000000000000000002f
:1001d00015330e0015330e000000000015330e001d
:1001e00015330e0015330e0015330e0015330e00b7
:1001f00015330e0015330e0015330e0015330e00a7
:1002000015330e0015330e0015330e0015330e0096
:1002100015330e0015330e0015330e0015330e0086
:1002200015330e0015330e0015330e0015330e0076
:1002300015330e0015330e00000000000000000012
:100240000000000015330e0015330e000000000002
:1002500015330e00000000000000000015330e00f2
:1002600015330e0015330e000000000000000000e2
:1002700015330e0015330e000000000000000000d2
:10028000000000000000000015330e0015330e00c2
:1002900015330e0015330e0015330e0015330e0006
:1002a00015330e0015330e0015330e00000000004c
:1002b00015330e000000000015330e0015330e003c
:1002c00015330e0015330e0015330e0015330e00d6
:1002d00015330e000000000015330e0015330e001c
:1002e00015330e0015330e0015330e00f8ff110004
:1002f000092f0e0015330e0015330e0017330e00b4
:1003000015330e0015330e00000000000000000041
:10031000000000000000000015330e0015330e0031
:100320000000000015330e0015330e0017330e00c9
:1003300017330e0017330e0017330e0017330e005d
:1003400000000000000000000000000000000000ad
:10035000000000000000000000000000000000009d
:10036000000000000000000000000000000000008d
:1003700017330e00000000000000000017330e00cd
:1003800017330e0017330e0017330e0017330e000d
:1003900017330e0017330e0017330e0017330e00fd
:1003a00017330e0017330e0017330e0017330e00ed
:1003b00017330e0017330e0017330e0017330e00dd
:1003c00017330e00000000000000000017330e007d
:1003d00017330e00000000000000000000000000c5
:1003e000000000000000000000000000000000000d
:1003f00000000000000000000000000000000000fd
:1004000000000000000000000000000000000000ec
:1004100000000000000000000000000000000000dc
:1004200000000000000000000000000000000000cc
:1004300000000000000000000000000000000000bc
:10044000000000000000000017330e0017330e00fc
:1004500017330e0017330e0017330e0017330e003c
:1004600017330e0017330e0017330e0017330e002c
:1004700017330e0017330e0017330e0017330e001c
:1004800017330e0017330e000000000000000000bc
:10049000000000000000000017330e0017330e00ac
:1004a00017330e0017330e0017330e000000000044
:1004b000000000000000000000000000000000003c
:1004c000000000000000000000000000000000002c
:1004d000000000000000000000000000000000001c
:1004e000000000000000000017330e0017330e005c
:1004f00017330e0017330e0015330e0015330e00a0
:1005000015330e0015330e0017330e0017330e008f
:1005100017330e0017330e0017330e0017330e007b
:1005200017330e0017330e0017330e0017330e006b
:1005300000000000000000000000000000000000bb
:10054000000000000000000017330e0017330e00fb
:1005500017330e0017330e0017330e0017330e003b
:1005600017330e0017330e0017330e0017330e002b
:1005700017330e0015330e0015330e0015330e0021
:1005800015330e0015330e0015330e0015330e0013
:0805900015330e0015330e00b7
:020000040000fa
:02000004000eec
:10059800f8b500bff8bc08bc9e467047ed320e00a7
:1005a80021310e00f8b500bff8bc08bc9e46704764
:0405b800fd300e0004
:020000040000fa
:02000004000eec
:0805bc00cc2a00000100000040
:020000040000fa
:02000004000eec
:1005c40080b485b000af03463960fb71074bfb6014
:1005d400fb799b00fa681344fb60fb683a681a6075
:1005e40000bf1437bd465df8047b70470001084026
:1005f40080b485b000af0346fb71084bfb60fb7908
:100604009b00fa681344fb60fb681b68bb60bb6813
:1006140018461437bd465df8047b70470001084056
:1006240080b485b000af03463960fb71094bfb60b1
:10063400fb799b00fa681344fb60fb681a683b680b
:100644001a43fb681a6000bf1437bd465df8047b8b
:10065400704700bf0001084080b485b000af034676
:100664003960fb71094bfb60fb799b00fa6813440a
:10067400fb60fb681a683b68db431a40fb681a603e
:1006840000bf1437bd465df8047b70470001084085
:1006940080b485b000af03463960fb71094bfb6041
:1006a400fb799b00fa681344fb60fb681a683b689b
:1006b4001340bb60bb6818461437bd465df8047b25
:1006c400704700bf0001084080b582b000af034608
:1006d4003960fb711346bb71bb79002b05d0fb79e4
:1006e40039681846fff79cff04e0fb79396818461f
:1006f400fff7b2ff00bf0837bd4680bd80b485b0a8
:1007040000af0346fb71fb79002b05d0fb79002b6e
:1007140002d0fb79002b06d1064bfb60fb7903f07a
:100724000702fb681a6000bf1437bd465df8047bfe
:10073400704700bf0001084080b483b000af064b8f
:100744007b607b681b68fb70fb7818460c37bd46e2
:100754005df8047b704700bf0001084080b485b099
:1007640000af0346fb71fb79002b02d0fb79042b0d
:1007740005d9fb79102b02d0fb79302b04d1054b22
:10078400fb60fa79fb681a6000bf1437bd465df858
:10079400047b70470401084080b483b000af064b6b
:1007a4007b607b681b68fb70fb7818460c37bd4682
:1007b4005df8047b704700bf0401084080b485b035
:1007c40000af0346fb80064bfb60fb88c3f30902c2
:1007d400fb681a6000bf1437bd465df8047b7047a0
:1007e4000801084080b483b000af094b3b6000238c
:1007f400fb713b681b6803f48073002b01d0012359
:10080400fb71fb7918460c37bd465df8047b7047d5
:100814000c01084080b483b000af074b7b607b6859
:100824001b689bb2c3f308037b807b8818460c3794
:10083400bd465df8047b70470c01084080b483b06a
:1008440000af094b3b600023fb713b681b6803f05e
:100854000403002b01d00123fb71fb7918460c37ec
:10086400bd465df8047b70471001084080b483b036
:1008740000af094b3b600023fb713b681b6803f02e
:100884000803002b01d00123fb71fb7918460c37b8
:10089400bd465df8047b70471001084080b483b006
:1008a40000af094b3b600023fb713b681b6803f0fe
:1008b4002003002b01d00123fb71fb7918460c3770
:1008c400bd465df8047b70471001084080b483b0d6
:1008d40000af074b7b607b681b6843f020027b689a
:1008e4001a6000bf0c37bd465df8047b704700bf3b
:1008f4001001084080b483b000af094b3b60002373
:10090400fb713b681b6803f01003002b01d001232b
:10091400fb71fb7918460c37bd465df8047b7047c4
:100924001001084080b483b000af074b7b607b6844
:100934001b6843f010027b681a6000bf0c37bd4689
:100944005df8047b704700bf1001084080b483b099
:1009540000af094b3b600023fb713b681b6803f04d
:100964008003002b01d00123fb71fb7918460c375f
:10097400bd465df8047b70471001084080b483b025
:1009840000af074b7b607b681b6843f080027b6889
:100994001a6000bf0c37bd465df8047b704700bf8a
:1009a4001001084080b483b000af094b3b600023c2
:1009b400fb713b681b6803f48063002b01d00123a7
:1009c400fb71fb7918460c37bd465df8047b704714
:1009d4001001084080b483b000af094b3b60002392
:1009e400fb713b681b6803f40063002b01d00123f7
:1009f400fb71fb7918460c37bd465df8047b7047e4
:100a04001001084080b483b000af094b3b60002361
:100a1400fb713b681b6803f48053002b01d0012356
:100a2400fb71fb7918460c37bd465df8047b7047b3
:100a34001001084080b483b000af074b7b607b6833
:100a44001b689bb2c3f30b037b807b8818460c376f
:100a5400bd465df8047b70471001084080b483b044
:100a640000af074b7b607b681b689bb2c3f3080332
:100a74007b807b8818460c37bd465df8047b704745
:100a84001401084080b485b000af0346fb710c4be1
:100a9400fb60fb79002b06d0fb681b6843f0010266
:100aa400fb681a6005e0fb681b6823f00102fb6821
:100ab4001a6000bf1437bd465df8047b704700bf61
:100ac4001401084080b485b000af0346fb710c4ba1
:100ad400fb60fb79002b06d0fb681b6843f4807233
:100ae400fb681a6005e0fb681b6823f48072fb68ee
:100af4001a6000bf1437bd465df8047b704700bf21
:100b04001401084080b483b000af074b7b607b685e
:100b14001b6843f480727b681a6000bf0c37bd46c3
:100b24005df8047b704700bf1801084080b485b0ad
:100b340000af0346fb71054bfb60fa79fb681a6052
:100b440000bf1437bd465df8047b70471c010840a4
:100b540080b483b000af054b7b607b681b68dbb25d
:100b640018460c37bd465df8047b70471c010840ed
:100b740080b485b000af0346fb71054bfb60fa7986
:100b8400fb681a6000bf1437bd465df8047b7047ec
:100b94002001084080b483b000af054b7b607b68c4
:100ba4001b68dbb218460c37bd465df8047b704702
:100bb4002001084080b485b000af7860054bfb602d
:100bc400fb687a681a6000bf1437bd465df8047b81
:100bd400704700bf8401084080b483b000af03466f
:100be400fb80b7f90630002b0bdb0949b7f9063057
:100bf4005b09fa8802f01f02012000fa02f241f8b0
:100c0400232000bf0c37bd465df8047b704700bf4e
:100c140000e100e080b483b000af0346fb80b7f985
:100c24000630002b10db0b49b7f906305b09fa8854
:100c340002f01f02012000fa02f2203341f82320bf
:100c4400bff34f8fbff36f8f00bf0c37bd465df806
:100c5400047b704700e100e080b483b000af03463a
:100c6400fb80b7f90630002b0edb0b4ab7f90630d0
:100c74005b09403352f82320fb8803f01f0322fa58
:100c840003f303f0010300e0002318460c37bd46cc
:100c94005df8047b704700bf00e100e080b483b0de
:100ca40000af0346fb80b7f90630002b0cdb094983
:100cb400b7f906305b09fa8802f01f02012000fa36
:100cc40002f2403341f8232000bf0c37bd465df8e3
:100cd400047b704700e100e080b483b000af0346ba
:100ce400fb80b7f90630002b0cdb0949b7f9063055
:100cf4005b09fa8802f01f02012000fa02f2603355
:100d040041f8232000bf0c37bd465df8047b7047d3
:100d140000e100e080b483b000af03463960fb809b
:100d2400b7f90630002b0adb0d49b7f906303a68eb
:100d3400d2b25201d2b20b4483f800230ae009492b
:100d4400fb8803f00f03043b3a68d2b25201d2b2db
:100d54000b441a7600bf0c37bd465df8047b704720
:100d640000e100e000ed00e080b483b000af034692
:100d7400fb80b7f90630002b09db0d4ab7f90630c2
:100d8400134493f80033dbb25b09dbb209e0094a90
:100d9400fb8803f00f03043b13441b7edbb25b09a7
:100da400dbb218460c37bd465df8047b704700bfc4
:100db40000e100e000ed00e080b584b000af034640
:100dc4003960fb71eff31083bb60bb68fb6072b6e4
:100dd40000210d4801f0d0fdfb79184600f016f80b
:100de40001f000f901f06afd01f090fdfb79002ba0
:100df40002d0386800f00cfffb68002b00d162b60b
:100e040000bf1037bd4680bd000d151d80b582b0f2
:100e140000af0346fb71fb79002b02d000f07cff8e
:100e240001e000f031fffb79184601f0fbf800bf48
:100e34000837bd4680bd80b500af01f0d3f801f09e
:100e4400b1f801f03bfd00bf80bd80b586b000afb6
:100e540078607b681b0cdbb203f01f037b757b6837
:100e64001b0edbb203f01f033b757b7d184600f0bd
:100e740060f80346002b04d07b681bb2dbb2fb8214
:100e840004e07b681b0a1bb2dbb2fb82eff3108326
:100e9400fb60fb683b6172b6b7f916301846fff782
:100ea4009bfe7b7d9bb23a7d1146184600f0ccff39
:100eb400bff34f8f3b69002b00d162b600bf1837d8
:100ec400bd4680bd80b586b000af78607b681b0ce2
:100ed400dbb203f01f03fb757b681b0edbb203f070
:100ee4001f03bb75eff31083bb60bb683b6172b635
:100ef400fb7d184600f01df80346002b08d07b68e4
:100f04001bb2dbb2fb81b7f90e301846fff782fe45
:100f1400fb7d9bb2ba7d1146184600f0bfffbff3bc
:100f24004f8f3b69002b00d162b600bf1837bd4616
:100f340080bd80b586b000af0346fb710023fb750e
:100f4400fb7903f01f0308333b610e4a3b6922fa25
:100f540003f303f00103002b0fd001f073f80346f1
:100f6400002b0ad0fb79184600f068fe0346fb7399
:100f7400fb7b002b01d10123fb75fb7d1846183741
:100f8400bd4680bd00e0af0780b584b000af786097
:100f94007b681b0cdbb203f01f03fb737b681b0e27
:100fa400dbb203f01f03bb73fb7b1bb2ba7b11469e
:100fb400184600f0f3febff34f8f00bf1037bd4655
:100fc40080bd80b584b000af78607b681b0cdbb259
:100fd40003f01f03fb737b681b0edbb203f01f03dc
:100fe400bb73fb7b1bb2ba7b1146184600f0fefeb6
:100ff400b860bb6818461037bd4680bd80b584b064
:1010040000af78607b681b0cdbb203f01f03fb733b
:101014007b681b0edbb203f01f03bb73fb7b1bb2ad
:10102400ba7b1146184600f08fffb860bb681846bb
:101034001037bd4680bd80b586b000af78600b46e2
:10104400fb7000f0ffff0346002b04d07b681bb24b
:10105400dbb2fb8204e07b681b0a1bb2dbb2fb82bf
:10106400eff31083fb60fb683b6172b6fa78b7f963
:1010740016301146184601f0e3fb3b69002b00d102
:1010840062b600bf1837bd4680bd80b584b000afde
:1010940078600b46fb7000f0d5ff0346002b04d0ac
:1010a4007b681bb2dbb2fb8104e07b681b0a1bb2ca
:1010b400dbb2fb81fa78b7f90e3011461846fff718
:1010c40029fe00bf1037bd4680bd80b584b000af97
:1010d400786000f0b7ff0346002b04d07b681bb296
:1010e400dbb2fb8104e07b681b0a1bb2dbb2fb8131
:1010f400b7f90e301846fff737feb860bb681846dc
:101104001037bd4680bd80b584b000af786000f074
:1011140099ff0346002b04d07b681bb2dbb2fb8132
:1011240004e07b681b0a1bb2dbb2fb81b7f90e300b
:101134001846fff791fd03467b737b7b18461037f7
:10114400bd4680bd80b584b000af786000f07aff02
:101154000346002b04d07b681bb2dbb2fb8104e0a6
:101164007b681b0a1bb2dbb2fb81b7f90e30184651
:10117400fff794fd00bf1037bd4680bd80b586b033
:1011840000af786000f05eff0346002b04d07b685c
:101194001bb2dbb2fb8204e07b681b0a1bb2dbb22e
:1011a400fb82eff31083bb60bb683b6172b6b7f997
:1011b40016301846fff750fd0346fb73b7f9163097
:1011c4001846fff789fdbff34f8f3b69002b00d111
:1011d40062b6fb7b18461837bd4680bd80b483b029
:1011e40000af0346fb71fb795b09dbb218460c3791
:1011f400bd465df8047b704780b483b000af0346fe
:10120400fb71fb7903f01f03dbb218460c37bd46b4
:101214005df8047b704780b485b000af0346fb7172
:101224000023fb60fb79af2b19d8fb799bb203f049
:101234001f037b81fb795b09dbb21a460b4b53f826
:1012440022207b8922fa03f303f00103002b06d04a
:10125400fb799b0003f1804303f50123fb60fb68ea
:1012640018461437bd465df8047b70479c320e0067
:1012740080b485b000af0346fb710023fb60fb79ab
:10128400af2b17d8fb799bb203f01f037b81fb794b
:101294005b09dbb21a460b4b53f822207b8922faf6
:1012a40003f303f00103002b04d0fb799a00064bef
:1012b4001344fb60fb6818461437bd465df8047b95
:1012c400704700bfb4320e000015084080b485b0ea
:1012d40000af0346fb710023fb81fb79af2b12d8cf
:1012e400fb795b09dbb2fb81fb890a4a52f82330a4
:1012f400fa7902f01f02012101fa02f21340002bd5
:1013040001d0012300e0002318461437bd465df8e0
:10131400047b70479c320e0080b584b000af034656
:10132400fb71fb791846fff776fff860fb681b68d2
:1013340018461037bd4680bd80b584b000af034663
:101344003960fb71fb791846fff765fff860fb68ad
:101354003a681a6000bf1037bd4680bd80b584b0be
:1013640000af0346fb71fb791846fff781fff86075
:10137400fb681b68dbb218461037bd4680bd80b5dc
:1013840084b000af03460a46fb711346bb71fb7978
:101394001846fff76dfff860fb68002b02d0fb686e
:1013a400ba791a7000bf1037bd4680bd80b584b0cd
:1013b40000af0346fb71fb791846fff72cfff8607a
:1013c400fb6803331b78dbb203f00103dbb218467e
:1013d4001037bd4680bd80b584b000af03460a46d1
:1013e400fb711346bb71fb791846fff714fff860d5
:1013f400fb6802331a46bb7903f00103dbb21370b6
:1014040000bf1037bd4680bd80b586b000af03462f
:10141400fb7100237b61fb791846fff7dffe03466f
:101424003b61fb791846fff7e7fe0346fb600f4a72
:101434003b6952f82320fb6822fa03f303f001030b
:10144400002b0ed03b699a00094b13447b617b69e6
:101454001a68fb6822fa03f3dbb203f00103dbb280
:1014640000e0ff2318461837bd4680bd9c320e00ad
:101474000013084080b586b000af03463960fb71a5
:1014840000237b61fb79af2b2bd8fb791846fff740
:10149400a5fe03463b61fb791846fff7adfe034604
:1014a400fb60124a3b6952f82320fb6822fa03f3db
:1014b40003f00103002b14d03b699a000c4b134436
:1014c4007b617b691b680121fa6801fa02f2d2434d
:1014d4001340bb607b693968fa689140ba680a4373
:1014e4001a6000bf1837bd4680bd00bf9c320e0095
:1014f4008013084080b584b000af03460a46fb71f0
:101504001346bb80fb791846fff785fef860fb683d
:101514001b889bb223f440537b81fb68ba8802f496
:10152400405291b27a890a4392b21a8000bf1037ae
:10153400bd4680bd80b584b000af03460a46fb714a
:101544001346bb80fb791846fff765feb860bb689d
:101554001b889bb223f40063fb81bb88002b03d060
:10156400fa89bb881343fb81bb68fa891a8000bfe0
:101574001037bd4680bd80b584b000af03460a462f
:10158400fb711346bb80fb791846fff744feb86035
:10159400bb681b889bb223f48063fb81bb88002b50
:1015a40003d0fa89bb881343fb81bb68fa891a808c
:1015b40000bf1037bd4680bd80b584b000af034680
:1015c4000a46fb711346bb80fb791846fff723fede
:1015d400b860bb681b889bb223f40073fb81bb8893
:1015e400002b03d0fa89bb881343fb81bb68fa89bb
:1015f4001a8000bf1037bd4680bd80b584b000afef
:1016040003460a46fb711346bb80fb791846fff775
:1016140002fef860fb681b889bb223f480737b8115
:10162400fb68ba8802f4807291b27a890a4392b252
:101634001a8000bf1037bd4680bd80b584b000afae
:1016440003460a46fb711346bb71fb791846fff744
:10165400e2fdf860fb681b889bb223f0f0037b81fa
:10166400fb68ba7992b202f0f00291b27a890a4325
:1016740092b21a8000bf1037bd4680bd80b584b0d9
:1016840000af03460a46fb711346bb71fb7918464b
:10169400fff7c1fdf860fb681b889bb223f00c03c5
:1016a4007b81fb68ba7992b202f00c0291b27a891a
:1016b4000a4392b21a8000bf1037bd4680bd80b580
:1016c40084b000af03460a46fb711346bb71fb7935
:1016d4001846fff7a0fdf860fb681b889bb223f057
:1016e40003037b81fb68ba7992b202f0030291b2e0
:1016f4007a890a4392b21a8000bf1037bd4680bd72
:020000040000fa
:02000004000eec
:10170400048011000400000001000000000000003b
:10171400308411001c000000000000005c841100f3
:101724000200000000000000008011000100000021
:10173400000000005e8411000100000000000000b1
:101744004c8411000400000001000000006cdc0265
:101754005f841100010000000000000050841100ab
:10176400040000000100000008801100088011003e
:10177400280400000100000000000000f4821100b1
:101784005c831100c483110000000000000000000d
:101794000000000000000000000000000000000045
:1017a4000000000000000000000000000000000035
:1017b4000000000000000000000000000000000025
:1017c4000000000000000000000000000000000015
:1017d4000000000000000000000000000000000005
:1017e40000000000000000000000000000000000f5
:1017f40000000000000000000000000000000000e5
:1018040000000000000000000000000000000000d4
:1018140000000000000000000000000000000000c4
:1018240001000000000000000e33cdab34126de661
:10183400ecde05000b0000000000000000000000ca
:101844000000000000000000000000000000000094
:101854000000000000000000000000000000000084
:101864000000000000000000000000000000000074
:101874000000000000000000000000000000000064
:101ba4005484110004000000010000000000000043
:101bb400588411000400000001000000000000002f
:101bc4000000000000000000222222222222222201
:020000040000fa
:02000004000eec
:101bd40080b483b000af0346fb71fb79122b0fd89e
:101be4000a4afb79083303f01f03012101fa03f3c6
:101bf40023f00041d2f8303161f31e03c2f83031d2
:101c040000bf0c37bd465df8047b704700e0004020
:101c140080b483b000af7860074a7b6823f000414a
:101c2400d2f8303161f31e03c2f8303100bf0c37f3
:101c3400bd465df8047b704700e0004080b485b089
:101c440000af0346fb710023fb73fb79122b11d801
:101c54000c4bd3f83031c3f31e031a46fb79083317
:101c640003f01f0322fa03f303f00103002b01d056
:101c74000123fb73fb7b18461437bd465df8047bd8
:101c8400704700bf00e0004080b400af064ad2f8bd
:101c940030316ff0004161f31e03c2f8303100bff0
:101ca400bd465df8047b704700e0004080b483b01b
:101cb40000af0346fb71fb79122b0fd80a4afb795c
:101cc400083303f01f03012101fa03f323f0004159
:101cd400d2f8343161f31e03c2f8343100bf0c373b
:101ce400bd465df8047b704700e0004080b483b0db
:101cf40000af7860074a7b6823f00041d2f83431a2
:101d040061f31e03c2f8343100bf0c37bd465df8e1
:101d1400047b704700e0004080b400af064ad2f86c
:101d240034316ff0004161f31e03c2f8343100bf57
:101d3400bd465df8047b704700e0004080b485b088
:101d440000af0346fb710b4bd3f83831c3f31803d0
:101d54001946fb79083303f01f03012202fa03f347
:101d64000b40fb60fb6818461437bd465df8047be6
:101d7400704700bf00e0004080b483b000af064b62
:101d8400d3f83831c3f318037b607b6818460c37eb
:101d9400bd465df8047b704700e0004080b485b028
:101da40000af03460a46fb8013467b710e4bfb6073
:101db400b7f90630122b10dcb7f9062013469b0046
:101dc40013449b001a46fb681344fb607b7903f0c1
:101dd4001f0301229a40fb681a6000bf1437bd46f6
:101de4005df8047b704700bf00e0004080b485b01c
:101df40000af03460a46fb8013467b71114bbb6060
:101e04000023fb60b7f90630122b13dcb7f9062068
:101e140013469b0013449b001a46bb681344bb60e3
:101e2400bb681a687b7903f01f03012101fa03f3ed
:101e34001340fb60fb6818461437bd465df8047b0d
:101e4400704700bf00e0004080b485b000af034697
:101e54000a46fb8013467b710f4bfb60fb88122bf9
:101e640013d8fa8813469b0013449b001a46fb6858
:101e74001344fb60fb681a687b7903f01f0301219c
:101e840001fa03f31a43fb681a6000bf1437bd4616
:101e94005df8047b704700bf04e0004080b485b067
:101ea40000af03460a46fb8013467b710f4bfb6071
:101eb400fb88122b13d8fa8813469b0013449b000b
:101ec4001a46fb681344fb60fb681a687b7903f0cd
:101ed4001f03012101fa03f31a43fb681a6000bfd0
:101ee4001437bd465df8047b704700bf0ce000402a
:101ef40080b485b000af03460a46fb8013467b716d
:101f0400104bbb600023fb60fb88122b12d8fa88ad
:101f140013469b0013449b001a46bb681344bb60e2
:101f2400bb681a687b7903f01f03012101fa03f3ec
:101f34001340fb60fb6818461437bd465df8047b0c
:101f4400704700bf04e0004080b485b000af034692
:101f54000a46fb8013467b71114bbb600023fb6078
:101f6400b7f90630122b13dcb7f9062013469b0091
:101f740013449b001a46bb681344bb60bb681a68d1
:101f84007b7903f01f03012101fa03f31340fb6083
:101f9400fb6818461437bd465df8047b704700bfe4
:101fa40008e0004080b483b000af0d4b3b600023d9
:101fb400fb800ce03b684ff0ff321a60fb88132b68
:101fc40002d03b6814333b60fb880133fb80fb8801
:101fd400122befd900bf0c37bd465df8047b704768
:101fe40000e0004080b483b000af0d4b3b600023a1
:101ff400fb800ce03b684ff0ff321a60fb88132b28
:1020040002d03b6814333b60fb880133fb80fb88c0
:10201400122befd900bf0c37bd465df8047b704727
:102024000ce0004080b483b000af0346fb71044a67
:10203400fb79936000bf0c37bd465df8047b7047a5
:1020440000fc004080b400af054b9b68dbb203f09a
:102054000103dbb21846bd465df8047b704700bf40
:1020640000fc004090b585b000af04460846114618
:102074001a462346fb710346bb800b467b801346fe
:102084003b80fb791846fff721f90346002b17d054
:10209400ba887b881a443b881a443b8c1a4497f8c4
:1020a40024301a4497f828301a4497f82c301344f3
:1020b400fb60fb79f9681846fff73ef9012300e05d
:1020c400002318461437bd4690bd80b582b000afda
:1020d40003463a60fb710b46bb71fb791846fff768
:1020e400f5f80346002b60d0bb79082b5ad801a21f
:1020f40052f823f01d210e002d210e003d210e006b
:102104004d210e005d210e006d210e007d210e007b
:102114008d210e009d210e003b68dab2fb79114639
:102124001846fff7ccfa3ee03b68dab2fb79114679
:102134001846fff7a3fa36e03b68dab2fb7911469a
:102144001846fff77afa2ee03b689ab2fb791146fb
:102154001846fff752fa26e03b689ab2fb7911461b
:102164001846fff729fa1ee03b689ab2fb7911463c
:102174001846fff700fa16e03b689ab2fb7911465d
:102184001846fff7d7f90ee03b689ab2fb7911467f
:102194001846fff7aff906e0fb7939681846fff7f0
:1021a400cbf800e000bf012300e000231846083705
:1021b400bd4680bd80b584b000af03460a46fb71be
:1021c4001346bb71fb791846fff780f80346002bd2
:1021d4007fd0bb79072b7ad801a252f823f000bf35
:1021e40005220e001d220e0037220e0051220e0081
:1021f4006b220e0085220e009f220e00b9220e00d3
:10220400fb791846fff788f8f860fb6803f00303ce
:10221400fb60fb68dbb25de0fb791846fff77cf8f6
:10222400f860fb6803f00c03fb60fb689b08dbb2ff
:1022340050e0fb791846fff76ff8f860fb6803f08d
:10224400f003fb60fb681b09dbb243e0fb79184633
:10225400fff762f8f860fb6803f48073fb60fb68c7
:102264001b0adbb236e0fb791846fff755f8f86035
:10227400fb6803f40073fb60fb685b0adbb229e0d4
:10228400fb791846fff748f8f860fb6803f48063ad
:10229400fb60fb689b0adbb21ce0fb791846fff786
:1022a4003bf8f860fb6803f40063fb60fb68db0a3f
:1022b400dbb20fe0fb791846fff72ef8f860fb68f5
:1022c40003f44053fb60fb681b0bdbb202e0ff230b
:1022d40000e0ff2318461037bd4680bd80b582b0ac
:1022e40000af03463a60fb710b46bb80fb7918468e
:1022f400fef7ecff0346002b17d0ba88fb79114692
:102304001846fff738f9bb88002b05d0fb793968ec
:102314001846fff7aff806e03b68dab2fb791146de
:102324001846fff758f8012300e000231846083741
:10233400bd4680bd80b582b000af0346fb71fb791a
:102344001846fef7c3ff0346002b05d0fb79184659
:10235400fff75af8034600e0ff2318460837bd4646
:1023640080bd80b582b000af0346fb71fb7918468f
:10237400fef7acff0346002b08d0fb791846fef7a6
:10238400edff034603f00103dbb200e0ff23184630
:102394000837bd4680bd80b584b000af03460a4609
:1023a400fb711346bb71fb791846fef78fff03469a
:1023b400002b18d0fb791846fef7d0ff0346fb73b9
:1023c400fb7b23f00103fb73bb7903f00103dab257
:1023d400fb7b1343fb73fa7bfb7911461846fef72c
:1023e400ceff012300e0002318461037bd4680bd10
:1023f40080b582b000af0346fb71fb791846fef747
:1024040065ff0346002b0ad0fb791846fef7a6ffaa
:1024140003461b09dbb203f00303dbb200e0ff2336
:1024240018460837bd4680bd80b584b000af03466a
:102434000a46fb711346bb71fb791846fef746ff4b
:102444000346002b18d0fb791846fef787ff034696
:10245400fb73fb7b23f00403fb73bb7903f00403de
:10246400dab2fb7b1343fb73fa7bfb791146184604
:10247400fef785ff012300e0002318461037bd4610
:1024840080bd00bf80b483b000af0d4b4ff4015248
:102494001a600c4b4ff401521a600b4b01221a7153
:1024a4000023fb7102e0fb790133fb71fb79ff2b05
:1024b400f9d100bf0c37bd465df8047b704700bfff
:1024c4001011084014110840008c004080b483b0ff
:1024d40000af0346fb71044afb79137000bf0c374d
:1024e400bd465df8047b7047008c004080b582b027
:1024f40000af0346fb80fb88dbb21846fff7e6ff1c
:10250400fb881b0a9bb2dbb21846fff7dfff00bf54
:102514000837bd4680bd80b582b000af78607b6867
:10252400dbb21846fff7d2ff7b681b0adbb2184602
:10253400fff7ccff7b681b0cdbb21846fff7c6ff26
:102544007b681b0edbb21846fff7c0ff00bf0837dd
:10255400bd4680bd80b582b000af0346fb8072b635
:10256400fd20fff7b3fffb881846fff7bfff62b6f5
:1025740000bf0837bd4680bd80b582b000af0346ba
:102584000a46fb801346bb8072b6fd20fff79eff10
:10259400fb881846fff7aaffbb881846fff7a6ff7b
:1025a40062b600bf0837bd4680bd80b582b000afbb
:1025b4000346fb800b46bb8013467b8072b6fd202e
:1025c400fff784fffb881846fff790ffbb88184687
:1025d400fff78cff7b881846fff788ff62b600bfc1
:1025e4000837bd4680bd90b583b000af04460846a9
:1025f40011461a462346fb800346bb800b467b806c
:1026040013463b8072b6fd20fff760fffb88184637
:10261400fff76cffbb881846fff768ff7b881846f6
:10262400fff764ff3b881846fff760ff62b600bf00
:102634000c37bd4690bd90b583b000af0446084644
:1026440011461a462346fb800346bb800b467b801b
:1026540013463b8072b6fd20fff738fffb8818460f
:10266400fff744ffbb881846fff740ff7b881846f6
:10267400fff73cff3b881846fff738ff3b8b1846b3
:10268400fff734ff62b600bf0c37bd4690bd80b57e
:1026940082b000af03463960fb8072b6fd20fff7bd
:1026a40015fffb881846fff721ff3868fff733ff53
:1026b40062b600bf0837bd4680bd80b584b000afa8
:1026c4000346b9607a60fb8172b6fd20fff7fefe17
:1026d400fb891846fff70affb868fff71cff786804
:1026e400fff719ff62b600bf1037bd4680bd80b545
:1026f40084b000afb9607a603b600346fb8172b678
:10270400fd20fff7e3fefb891846fff7effeb868ec
:10271400fff701ff7868fff7fefe3868fff7fbfe5e
:1027240062b600bf1037bd4680bd80b584b000af2f
:10273400b9607a603b600346fb8172b6fd20fff707
:10274400c5fefb891846fff7d1feb868fff7e3fe24
:102754007868fff7e0fe3868fff7ddfeb869fff739
:10276400dafe62b600bf1037bd4680bd80b483b0c8
:1027740000af0346fb80b7f90630002b0bdb094999
:10278400b7f906305b09fa8802f01f02012000fa4b
:1027940002f241f8232000bf0c37bd465df8047bec
:1027a400704700bf00e100e080b483b000af03468f
:1027b400fb80b7f90630002b10db0b49b7f9063064
:1027c4005b09fa8802f01f02012000fa02f22033aa
:1027d40041f82320bff34f8fbff36f8f00bf0c3737
:1027e400bd465df8047b704700e100e080b483b02f
:1027f40000af03463960fb80b7f90630002b0adbd3
:102804000d49b7f906303a68d2b25201d2b20b443c
:1028140083f800230ae00949fb8803f00f03043b13
:102824003a68d2b25201d2b20b441a7600bf0c37c6
:10283400bd465df8047b704700e100e000ed00e078
:1028440080b582b000af03460a46fb8013467b7115
:102854007b79002b05d0b7f906301846fff786ffc1
:1028640004e0b7f906301846fff79effbff34f8f19
:1028740000bf0837bd4680bd80b483b000af0523d8
:102884003b603b6801333b6000237b6009e00a4afc
:102894007b6820334ff0ff3142f823107b6801330b
:1028a4007b607a683b689a42f1d300bf0c37bd461f
:1028b4005df8047b704700bf00e100e080b483b0a2
:1028c40000af05233b603b6801333b6000237b6022
:1028d40010e00d4a7b6820334ff0ff3142f823109b
:1028e400094a7b6860334ff0ff3142f823107b685c
:1028f40001337b607a683b689a42ead300bf0c37a5
:10290400bd465df8047b704700e100e080b483b00d
:1029140000af00237b6009e0094a7b68134403f598
:10292400407300221a707b6801337b607b68ad2b97
:10293400f2d900bf0c37bd465df8047b704700bf79
:1029440000e100e080b584b000af0346fb710023d2
:10295400fb8109e0b7f90e30fa7911461846fff702
:1029640045fffb890133fb81fb89ad2bf2d900bf05
:102974001037bd4680bd00bf80b584b000af78601d
:102984000b46fb707b68dbb2012202fa03f3fb60a7
:102994007b681b0afb72fa78fb7af9681846fdf724
:1029a40093fe00bf1037bd4680bd80b586b000af32
:1029b40078607b68dbb2012202fa03f33b617b6837
:1029c4001b0cfb730023fb75fb7b39691846fdf771
:1029d4005ffe0346002b01d00123fb75fb7d1846e7
:1029e4001837bd4680bd80b584b000af78600b4613
:1029f400fb707b68dbb2012202fa03f3fb607b68a5
:102a04001b0efb72fa78fb7af9681846fdf75cfe38
:102a140000bf1037bd4680bd80b500af4ff0ff3119
:102a24000c20fdf7cdfd4ff0ff310d20fdf7c8fd63
:102a34004ff0ff310e20fdf7c3fd4ff0ff310f20a3
:102a4400fdf7befd4ff0ff311020fdf7b9fd00bfcb
:102a540080bd80b500af00210c20fdf7b1fd002141
:102a64000d20fdf7adfd00210e20fdf7a9fd00218d
:102a74000f20fdf7a5fd00211020fdf7a1fd00bfeb
:102a840080bd80b582b000af0346fb71fb79184668
:102a9400fdf734fe00bf0837bd4680bd80b500afea
:102aa400fdf7c8ff0346184680bd80b500affdf7ab
:102ab400d5ff0346184680bd80b582b000af0346fb
:102ac400fb71fb791846fdf7ddff00bf0837bd46f3
:102ad40080bd80b582b000af0346fb71fb79184618
:102ae400fdf7f0ff00bf0837bd4680bd80b500afdd
:102af400fef708f800bf80bd80b582b000af034682
:102b0400fb71fb791846fef711f800bf0837bd4684
:102b140080bd80b500affef71bf80346184680bda4
:102b240080b582b000af0346fb71fb791846fef70f
:102b34001ff800bf0837bd4680bd80b500affef763
:102b440029f80346184680bd80b500af0248fef759
:102b540031f800bf80bd00bf4d2d38a680b500af51
:102b64000248fef727f800bf80bd00bf4c2d38a6f1
:102b740080b500af72b600f005fa00f04af800f034
:102b8400f1fafff77ffc62b600f001fb4ff47a70b4
:102b940000f028f8f8e780b487b000af78607b686d
:102ba400002b17d00e4bdb683b610d4bdb68fb60e1
:102bb400fa683b699a4204d3fa683b69d31a7b6189
:102bc40004e0fa683b69d31a013b7b617a697b684c
:102bd4009a42ead300bf1c37bd465df8047b7047b8
:102be4000010004080b584b000af78607b68da02e2
:102bf4007b689b021a447b68db00d21a7b689b00cb
:102c0400d31afb60f868fff7c6ff00bf1037bd4654
:102c140080bd80b582b000af00211148fff7acfe43
:102c24004323bb800f4abb8843f004039bb2136069
:102c34000023fb8008e00b4b1b6803f00403002b0c
:102c440006d0fb880133fb80fb881f2bf3d900e0ff
:102c540000bf044abb88136000bf0837bd4680bd6f
:082c64001e0f171f00100040b5
:020000040000fa
:02000004000eec
:102c6c002de9f04f314b85b01b68029303f5a4732b
:102c7c0001900e460393029bd3f8487137b3ddf8ed
:102c8c000ca04ff00109d3467c68651e0ed40134ac
:102c9c0007eb84044ff00008deb1d4f800319e42fb
:102cac0017d0013d6b1ca4f10404f5d1204b6bb182
:102cbc007b68002b35d13b6843b13846cbf80030ec
:102ccc00aff30080dbf80070002fddd105b0bde85c
:102cdc00f08f7b682268013bab420cbf7d60c4f86f
:102cec000080002addd0d7f88811d7f804a009faa3
:102cfc0005f30b420fd0d7f88c110b420dd1d4f841
:102d0c008010019890477b685345b4d1dbf80030b4
:102d1c00bb42c6d0afe79047f5e7d4f880009047a8
:102d2c00f1e7bb463f68002faed1cfe70c330e0066
:042d3c000000000093
:020000040000fa
:02000004000eec
:102d40002de9f047254c2568d5f8484106468846c8
:102d500092469946c4b360681f2817dc431c76b1bd
:102d600004eb80050122c5f888a0d4f888118240c0
:102d70001143022ec4f88811c5f808911ed0023004
:102d8000636044f820800020bde8f087144b03b353
:102d90004ff4c870aff300800446d0b1d5f8483185
:102da000002780e88800c5f8484138460123c4f868
:102db0008871c4f88c71002ee1d0d1e7d4f88c1161
:102dc0000a43c4f88c21dae705f5a674c5f8484132
:102dd000c1e74ff0ff30bde8f08700bf0c330e00b5
:042de00000000000ef
:020000040000fa
:02000004000eec
:102de40070b4860746d0541e002a41d0cab20346a6
:102df40002e014f1ff343bd303f8012b9d07f8d113
:102e0400032c2ed9cdb245ea05250f2c45ea0545fc
:102e140019d903f110022646103e0f2e42f8105c19
:102e240042f80c5c42f8085c42f8045c02f11002bf
:102e3400f2d8a4f1100222f00f0204f00f041032b1
:102e4400032c13440dd91e462246043a032a46f89d
:102e5400045bfad8221f22f003020432134404f064
:102e640003042cb1c9b21c4403f8011b9c42fbd1de
:0c2e740070bc704714460346c2e700bf64
:020000040000fa
:02000004000eec
:102e8000dff880d082b000af174b03b19847174be3
:102e900003b19847eff31083b3fa83f35b097b60c8
:102ea00072b6bff35f8f0022114b1a707968114a16
:102eb000136843f470031360bff34f8fbff36f8f3a
:102ec00029b101220a4b1a70bff35f8f62b600f07e
:102ed0009bf8094b9847094b03b19847084b03b13e
:102ee0009847fff747fefee70000000000000000e3
:102ef0005f84110088ed00e0cd310e00000000007d
:102f000000000000f8ff1100dff878d082b000afb9
:102f1000134b03b19847134b03b19847124b134a15
:102f20009a420ad004329b1a23f003031344043a52
:102f3000002142f8041b9a42fbd100f065f80c4acc
:102f40000c4b23f07f0393600b4b98470b4b03b163
:102f500098470b4b03b19847fff70cfefee700bf05
:102f6000000000000000000004801100008011003b
:102f700000ed00e000000e00cd310e00000000006a
:082f800000000000f8ff110041
:020000040000fa
:02000004000eec
:102f880080b483b000af0b4b0b4a1a600b4b5b68e5
:102f9800dbb27b607b68002b05d0074a7b68b2fbfd
:102fa800f3f3044a136000bf0c37bd465df8047b99
:102fb800704700bf4c841100006cdc02000108401f
:102fc80080b400af0a4a0a4bd3f8883043f4700340
:102fd800c2f88830074a5368012161f30703536038
:102fe800054b064a1a6000bfbd465df8047b704772
:102ff80000ed00e0000108404c841100006cdc0288
:020000040000fa
:02000004000eec
:103008001c4b1d4a934230b438bf002103d203f849
:10301800011b9342fbd1194800250168c1b94268d8
:1030280032b383680c30d3b10139034613f8014b2e
:1030380001f8014f1c1a9442f8d312f0030318bf89
:10304800012303eb920200eb820001680029e6d01d
:10305800846842680b460c303cb9002addd01a441b
:1030680003f8015b9a42fbd1d7e7002adcd1e4e7f9
:1030780030bc7047008011000480110004170e0056
:020000040000fa
:02000004000eec
:10308800154b002b08bf134b9d46a3f5803a002132
:103098008b4600271348144a121afff79ffe0f4b5e
:1030a800002b00d098470e4b002b00d098470020eb
:1030b800002104000d000d48002802d00c4800f043
:1030c8001bf900f07ff820002900fff74ffd00f002
:1030d800f9f800bf00000800000000000000000030
:1030e80000000000008011000480110001330e0070
:1030f80069320e0010b5054c237833b9044b13b16f
:103108000448aff300800123237010bd3084110000
:1031180000000000000000000c4b43b10c480d49b2
:1031280010b5aff300800c48036823b910bd0a48f6
:10313800036833b97047094b002bf7d0bde810403e
:103148001847064b002bf5d0184700bf00000000b9
:10315800000000003484110000000000000000009e
:1031680080b584b004af00230393002302930023a7
:103178000193002300934ff40073002200216e2076
:10318800fef76eff00bfbd4680bd80b500af0c4b9b
:103198001b78002b06d000224ff480616e20fff7c9
:1031a8009bf805e001224ff480616e20fff794f848
:1031b800034b1b78db43dab2014b1a7000bf80bdaa
:0431c8005e84110010
:020000040000fa
:02000004000eec
:1031cc0070b50f4e0f4d761bb61018bf002405d0ee
:1031dc00013455f8043b9847a642f9d10a4e0b4de1
:1031ec00761bfdf7d3f9b61018bf002406d00134b6
:1031fc0055f8043b9847a642f9d170bd70bd00bf8d
:10320c00a4050e00a4050e00ac050e00a4050e00ce
:020000040000fa
:02000004000eec
:10321c00436f707972696768742863292032303182
:10322c0038202d204d6963726f636869702d534d82
:10323c005343200034000000000400004576657202
:10324c00676c616465735f5345505f44656d6f5f78
:0c325c006275696c645f30343030000033
:020000040000fa
:02000004000eec
:1032680038b50a4c0a4d641ba4100ad004f18043f7
:10327800013b05eb8305013c55f804399847002cc0
:10328800f9d1bde83840fdf78db900bfbc050e0087
:04329800b8050e0067
:020000040000fa
:02000004000eec
:10329c009dffff7ffdffff7ff7fcff07ffff2e2742
:1032ac00ff0fde007fff01009dffff7ffdffff7f13
:1032bc00f7fcff07ffff2e27ff0fde007fff01004b
:020000040000fa
:02000004000eec
:1032cc0008b500210446fff7cbfc044b1868c36b10
:1032dc0003b19847204600f015f800bf0c330e00e0
:020000040000fa
:02000004000eec
:1032ec00024b13b1024800f005b870470000000013
:0432fc0069320e0025
:020000040000fa
:02000004000eec
:0c330000002301461a461846fff71abdcc
:020000040000fa
:02000004000eec
:04330c000880110024
:020000040000fa
:02000004000eec
:04331000fee700bf15
:020000040000fa
:02000004000eec
:04331400fee7fee7eb
:00000001FF
